:020000040800F2
:1000000000000320414B0008E92F0008F72F0008EB
:10001000FD2F000803300008093000080000000030
:100020000000000000000000000000000F30000889
:100030001D300008000000002B3000083930000897
:10004000954B0008954B0008954B0008453000087B
:10005000954B0008954B0008D3300008E1300008AC
:10006000954B0008954B0008C5300008954B0008DB
:10007000954B0008954B000851300008954B00083F
:10008000954B0008954B0008954B0008954B0008D0
:10009000954B0008954B0008954B0008954B0008C0
:1000A000954B0008954B0008954B0008954B0008B0
:1000B000954B0008954B0008954B0008954B0008A0
:1000C000954B0008954B0008954B0008954B000890
:1000D0006530000879300008954B0008954B000802
:1000E000954B0008954B0008954B0008954B000870
:1000F0008D30000899300008A5300008954B0008A5
:10010000954B0008954B0008954B0008954B00084F
:10011000954B0008954B0008954B0008954B00083F
:10012000954B0008954B0008B1300008954B00082E
:0C013000954B0008954B0008954B00080B
:1001400010B5054C237833B9044B13B10448AFF311
:1001500000800123237010BD4C020020000000002D
:1001600054FC000808B5034B1BB103490348AFF327
:10017000008008BD000000005002002054FC000870
:1001800010F8012B11F8013B012A28BF9A42F7D041
:10019000D01A7047000000000000000000000000BE
:1001A00001F0FF01102A2BDB10F0070F08D010F828
:1001B000013B013A8B422DD010F0070F42B3F6D12C
:1001C000F0B441EA012141EA014122F007047FF045
:1001D00000070023F0E80256083C85EA010586EA9C
:1001E000010685FA47F5A3FA87F586FA47F6A5FAD8
:1001F00087F68EB9EED1F0BC01F0FF0102F00702E4
:1002000032B110F8013B013A83EA010313B1F8D18E
:100210000020704701387047002D06BF354603386F
:10022000073815F0010F07D1013015F4807F02BFA8
:10023000013015F4C03F0130F0BC0138704700BFF9
:10024000034613F8012B002AFBD1181A0138704716
:1002500081F0004102E000BF83F0004330B54FEA77
:1002600041044FEA430594EA050F08BF90EA020FE4
:100270001FBF54EA000C55EA020C7FEA645C7FEA77
:10028000655C00F0E2804FEA5454D4EB5555B8BF9A
:100290006D420CDD2C4480EA020281EA030382EA0B
:1002A000000083EA010180EA020281EA0303362D9D
:1002B00088BF30BD11F0004F4FEA01314FF4801C70
:1002C0004CEA113102D0404261EB410113F0004F82
:1002D0004FEA03334CEA133302D0524263EB430339
:1002E00094EA050F00F0A780A4F10104D5F1200ED7
:1002F0000DDB02FA0EFC22FA05F2801841F1000132
:1003000003FA0EF2801843FA05F359410EE0A5F105
:1003100020050EF1200E012A03FA0EFC28BF4CF036
:10032000020C43FA05F3C01851EBE37101F00045EC
:1003300007D54FF0000EDCF1000C7EEB00006EEBF9
:100340000101B1F5801F1BD3B1F5001F0CD3490883
:100350005FEA30004FEA3C0C04F101044FEA4452DA
:1003600012F5800F80F09A80BCF1004F08BF5FEA61
:10037000500C50F1000041EB045141EA050130BD41
:100380005FEA4C0C404141EB0101013C28BFB1F553
:10039000801FE9D291F0000F04BF01460020B1FA9E
:1003A00081F308BF2033A3F10B03B3F120020CDA71
:1003B0000C3208DD02F1140CC2F10C0201FA0CF04F
:1003C00021FA02F10CE002F11402D8BFC2F1200CB4
:1003D00001FA02F120FA0CFCDCBF41EA0C0190406A
:1003E000E41AA2BF01EB0451294330BD6FEA0404B3
:1003F0001F3C1CDA0C340EDC04F11404C4F120029E
:1004000020FA04F001FA02F340EA030021FA04F3AF
:1004100045EA030130BDC4F10C04C4F1200220FA06
:1004200002F001FA04F340EA0300294630BD21FA44
:1004300004F0294630BD94F0000F83F4801306BF0A
:1004400081F480110134013D4EE77FEA645C18BFFE
:100450007FEA655C29D094EA050F08BF90EA020F95
:1004600005D054EA000C04BF1946104630BD91EA8D
:10047000030F1EBF0021002030BD5FEA545C05D190
:100480004000494128BF41F0004130BD14F58004CF
:100490003CBF01F5801130BD01F0004545F0FE4143
:1004A00041F470014FF0000030BD7FEA645C1ABF78
:1004B000194610467FEA655C1CBF0B46024650EAAF
:1004C000013406BF52EA033591EA030F41F40021DB
:1004D00030BD00BF90F0000F04BF0021704730B561
:1004E0004FF4806404F132044FF000054FF0000136
:1004F00050E700BF90F0000F04BF0021704730B5F7
:100500004FF4806404F1320410F0004548BF4042CB
:100510004FF000013EE700BF42004FEAE2014FEA20
:1005200031014FEA02701FBF12F07F4393F07F4FFB
:1005300081F06051704732F07F4208BF704793F0FE
:100540007F4F04BF41F40021704730B54FF4607411
:1005500001F0004521F000411CE700BF50EA010214
:1005600008BF704730B54FF000050AE050EA0102BD
:1005700008BF704730B511F0004502D5404261EB2D
:1005800041014FF4806404F132045FEA915C3FF46E
:10059000D8AE4FF003025FEADC0C18BF03325FEA0B
:1005A000DC0C18BF033202EBDC02C2F1200300FABC
:1005B00003FC20FA02F001FA03FE40EA0E0021FAE1
:1005C00002F11444BDE600BF70B54FF0FF0C4CF4CF
:1005D000E06C1CEA11541DBF1CEA135594EA0C0F81
:1005E00095EA0C0F00F0DEF82C4481EA030621EABC
:1005F0004C5123EA4C5350EA013518BF52EA0335F7
:1006000041F4801143F4801338D0A0FB02CE4FF0A8
:100610000005E1FB02E506F00042E0FB03E54FF0D8
:100620000006E1FB03569CF0000F18BF4EF0010ED0
:10063000A4F1FF04B6F5007F64F5407404D25FEACC
:100640004E0E6D4146EB060642EAC62141EA55517F
:100650004FEAC52040EA5E504FEACE2EB4F1FD0CC1
:1006600088BFBCF5E06F1ED8BEF1004F08BF5FEA3F
:10067000500E50F1000041EB045170BD06F00046F1
:1006800046EA010140EA020081EA0301B4EB5C049E
:10069000C2BFD4EB0C0541EA045170BD41F4801196
:1006A0004FF0000E013C00F3AB8014F1360FDEBFBB
:1006B000002001F0004170BDC4F10004203C35DA97
:1006C0000C341BDC04F11404C4F1200500FA05F31A
:1006D00020FA04F001FA05F240EA020001F00042BB
:1006E00021F0004110EBD37021FA04F642EB060131
:1006F0005EEA430E08BF20EAD37070BDC4F10C045B
:10070000C4F1200500FA04F320FA05F001FA04F21E
:1007100040EA020001F0004110EBD37041F100010A
:100720005EEA430E08BF20EAD37070BDC4F1200515
:1007300000FA05F24EEA020E20FA04F301FA05F27D
:1007400043EA020321FA04F001F0004121FA04F225
:1007500020EA020000EBD3705EEA430E08BF20EAF5
:10076000D37070BD94F0000F0FD101F0004640002F
:1007700041EB010111F4801F08BF013CF7D041EAB1
:10078000060195F0000F18BF704703F000465200B5
:1007900043EB030313F4801F08BF013DF7D043EA86
:1007A0000603704794EA0C0F0CEA135518BF95EA3C
:1007B0000C0F0CD050EA410618BF52EA4306D1D1C3
:1007C00081EA030101F000414FF0000070BD50EAE2
:1007D000410606BF1046194652EA430619D094EA6C
:1007E0000C0F02D150EA013613D195EA0C0F05D156
:1007F00052EA03361CBF104619460AD181EA0301AA
:1008000001F0004141F0FE4141F470014FF0000061
:1008100070BD41F0FE4141F4780170BD70B54FF0FC
:10082000FF0C4CF4E06C1CEA11541DBF1CEA13557C
:1008300094EA0C0F95EA0C0F00F0A7F8A4EB05045E
:1008400081EA030E52EA03354FEA013100F0888055
:100850004FEA03334FF0805545EA131343EA12631E
:100860004FEA022245EA111545EA10654FEA0026D3
:100870000EF000419D4208BF964244F1FD0404F58C
:10088000407402D25B084FEA3202B61A65EB0305E8
:100890005B084FEA32024FF480104FF4002CB6EBA5
:1008A000020E75EB030E22BFB61A754640EA0C0025
:1008B0005B084FEA3202B6EB020E75EB030E22BF65
:1008C000B61A754640EA5C005B084FEA3202B6EBA6
:1008D000020E75EB030E22BFB61A754640EA9C0065
:1008E0005B084FEA3202B6EB020E75EB030E22BF35
:1008F000B61A754640EADC0055EA060E18D04FEAF3
:10090000051545EA16754FEA06164FEAC30343EA92
:1009100052734FEAC2025FEA1C1CC0D111F4801F5F
:100920000BD141EA00014FF000004FF0004CB6E758
:1009300011F4801F04BF01430020B4F1FD0C88BFF7
:10094000BCF5E06F3FF6AFAEB5EB030C04BFB6EB02
:10095000020C5FEA500C50F1000041EB045170BDF5
:100960000EF0004E4EEA113114EB5C04C2BFD4EB22
:100970000C0541EA045170BD41F480114FF0000EA6
:10098000013C90E645EA060E8DE60CEA135594EA22
:100990000C0F08BF95EA0C0F3FF43BAF94EA0C0F25
:1009A0000AD150EA01347FF434AF95EA0C0F7FF49A
:1009B00025AF104619462CE795EA0C0F06D152EAEE
:1009C00003353FF4FDAE1046194622E750EA4106D2
:1009D00018BF52EA43067FF4C5AE50EA41047FF4E3
:1009E0000DAF52EA43057FF4EBAE12E74FF0FF3C48
:1009F00006E000BF4FF0010C02E000BF4FF0010C19
:100A00004DF804CD4FEA410C7FEA6C5C4FEA430C91
:100A100018BF7FEA6C5C1BD001B050EA410C0CBFE0
:100A200052EA430C91EA030F02BF90EA020F002042
:100A3000704710F1000F91EA030F58BF994208BFA9
:100A400090422CBFD8176FEAE37040F00100704766
:100A50004FEA410C7FEA6C5C02D150EA013C07D1BD
:100A60004FEA430C7FEA6C5CD6D152EA033CD3D008
:100A70005DF8040B704700BF8446104662468C4602
:100A80001946634600E000BF01B5FFF7B7FF002835
:100A900048BF10F1000F01BD4DF808EDFFF7F4FF5E
:100AA0000CBF012000205DF808FB00BF4DF808EDE9
:100AB000FFF7EAFF34BF012000205DF808FB00BF0C
:100AC0004DF808EDFFF7E0FF94BF012000205DF82E
:100AD00008FB00BF4DF808EDFFF7CEFF94BF0120E3
:100AE00000205DF808FB00BF4DF808EDFFF7C4FFDC
:100AF00034BF012000205DF808FB00BF4FEA410C25
:100B00007FEA6C5C02D150EA013C0AD14FEA430C07
:100B10007FEA6C5C02D152EA033C02D14FF0000044
:100B200070474FF0010070474FEA410212F5001282
:100B300015D211D56FF47873B3EB625212D94FEA24
:100B4000C12343F0004343EA505311F0004F23FA0E
:100B500002F018BF404270474FF00000704750EA63
:100B6000013005D111F0004008BF6FF00040704720
:100B70004FF00000704700BF53B94AB9002908BFC1
:100B800000281CBF4FF0FF314FF0FF3000F070B96C
:100B9000ADF1080C6DE904CE00F006F8DDF804E0D4
:100BA000DDE9022304B070472DE9F047089E0D46A9
:100BB00004460F46002B4AD18A42944665D9B2FAC0
:100BC00082F343B102FA03FCC3F120029F4020FAF2
:100BD00002F217439C404FEA1C4E1FFA8CF5B7FBFC
:100BE000FEF1220C0EFB117742EA074201FB05F0F1
:100BF00090420AD91CEB020201F1FF3780F01C8100
:100C0000904240F2198102396244121AA4B2B2FB36
:100C1000FEF00EFB102244EA024400FB05F5A5425B
:100C20000AD91CEB040400F1FF3280F00781A542D1
:100C300040F204816444023840EA0140641B002110
:100C40001EB1DC400023C6E90043BDE8F0878B42BB
:100C500008D9002E00F0ED800021C6E90005084605
:100C6000BDE8F087B3FA83F1002949D1AB4202D342
:100C7000824200F2F880841A65EB030201201746D5
:100C8000002EE2D0C6E90047DFE702B9FFDEB2FA84
:100C900082F3002B40F090808A1A4FEA1C471FFA1B
:100CA0008CFE0121B2FBF7F507FB1520220C42EA6E
:100CB00000420EFB05F0904208D91CEB020205F140
:100CC000FF3802D2904200F2CB804546121AA4B2FD
:100CD000B2FBF7F007FB102244EA02440EFB00FED1
:100CE000A64508D91CEB040400F1FF3202D2A64548
:100CF00000F2BB801046A4EB0E0440EA05409FE7DB
:100D0000C1F120078B4022FA07FC4CEA030C05FADC
:100D100001F420FA07F3FD404FEA1C492343B5FBD9
:100D2000F9F81FFA8CFE09FB18551C0C44EA05441F
:100D300008FB0EF5A54202FA01F200FA01F00BD908
:100D40001CEB040408F1FF3A80F08880A54240F2D1
:100D50008580A8F102086444641B9DB2B4FBF9F3DA
:100D600009FB134445EA044403FB0EFEA64508D9DB
:100D70001CEB040403F1FF356CD2A6456AD9023B93
:100D8000644443EA0843A3FB0295A4EB0E04AC427F
:100D9000C846AE4656D353D056B1B0EB080264EB0A
:100DA0000E0404FA07F7CA40CC401743C6E90074A2
:100DB00018460021BDE8F087C3F1200102FA03FCC8
:100DC00020FA01F225FA01F19D402A434FEA1C471F
:100DD0001FFA8CFEB1FBF7F007FB1015110C41EA6E
:100DE000054100FB0EF58D4204FA03F408D91CEB13
:100DF000010100F1FF382FD28D422DD90238614414
:100E0000491B92B2B1FBF7F507FB151142EA01420B
:100E100005FB0EF1914208D91CEB020205F1FF38E7
:100E200016D2914214D9023D6244521A45EA004159
:100E300038E73146304608E73946E6E61046FBE635
:100E40004845A9D2B9EB020865EB0C0E013BA3E7BC
:100E50004546EAE72B4694E74046D1E7D0467BE794
:100E6000023D624432E708460AE76444023842E73A
:100E7000704700BF80B483B000AF7860064BD3F8F2
:100E8000902005497B681343C1F8903000BF0C37B0
:100E9000BD465DF8047B70470008005880B485B0FB
:100EA00000AF78604FF0B043DA6C4FF0B0417B6830
:100EB0001343CB644FF0B043DA6C7B681340FB60A4
:100EC000FB6800BF1437BD465DF8047B704780B4F3
:100ED00085B000AF78604FF0B043D3F84C214FF0AD
:100EE000B0417B681343C1F84C314FF0B043D3F8A5
:100EF0004C217B681340FB60FB6800BF1437BD4684
:100F00005DF8047B704780B500AF04F043F804F04F
:100F100047F84FF48030FFF7ADFF0AF0DFF900F03B
:100F200021F800F0C1F800BF80BD0000B0B588B066
:100F300000AF0B4B3C1D1D460FCD0FC495E80700BD
:100F400003C422800234130C23700BF00FFE3B1DF0
:100F500018460AF03CFC00BF2037BD46B0BD00BFBC
:100F600070FC000880B588B000AF3B1D00221A60FD
:100F70005A609A60DA601A610023BB8300237B8386
:100F800000233B830023FB7736E0FB7F434ADB00F3
:100F900013449B79002B2CD0FB7F404A52F833300E
:100FA0003F4A93421BD03E4A934221D8B3F1904F1F
:100FB00003D03C4A934209D01AE0FB7F374ADB005A
:100FC00013449A88BB8B1343BB8312E0FB7F334AE5
:100FD000DB0013449A887B8B13437B8309E0FB7F00
:100FE0002E4ADB0013449A883B8B13433B8300E07B
:100FF00000BFFB7F0133FB77FB7F252BC5D9002387
:10100000FB600123BB6003233B61BB8B002B14D02F
:10101000BB8B7B600120FFF741FF0120FFF757FFEB
:101020003B1D19464FF0904004F0EEFCBB8B0022B4
:1010300019464FF0904004F057FE7B8B002B12D0E6
:101040007B8B7B600220FFF729FF0220FFF73FFF29
:101050003B1D1946134804F0D7FC7B8B0022194630
:10106000104804F041FE3B8B002B13D03B8B7B6080
:101070000420FFF713FF0420FFF729FF3B1D19464B
:10108000074804F0C1FC3B8B00221946044804F0D9
:101090002BFE00BF00BF2037BD4680BD800C01087D
:1010A000000800480004004880B400AF00BFBD46FF
:1010B0005DF8047B704780B500AF01F0EBFC00BF2A
:1010C00080BD80B584B000AFF8600B467A607B814C
:1010D0007A897B68F968002001F068FB00BF10374F
:1010E000BD4680BD80B483B000AF7860074BD3F8B5
:1010F000803023F0070205497B681343C1F8803034
:1011000000BF0C37BD465DF8047B704700040058F3
:1011100080B483B000AF7860064BD3F890200549C7
:101120007B681343C1F8903000BF0C37BD465DF8B3
:10113000047B70470008005880B483B000AF78602B
:101140004FF0B0430A4AC3F89C204FF0B043D3F8A5
:101150009C3023F47C527B681B024FF0B041134358
:10116000C1F89C3000BF0C37BD465DF8047B70476A
:10117000FECAFECA80B483B000AF78604FF0B043BF
:101180009B6823F400424FF0B0417B6813438B60AF
:1011900000BF0C37BD465DF8047B704780B400AFDC
:1011A0004FF0B043D3F890304FF0B04243F4803367
:1011B000C2F8903000BFBD465DF8047B704780B434
:1011C00000AF4FF0B043D3F890304FF0B04223F46B
:1011D0008033C2F8903000BFBD465DF8047B704795
:1011E00080B400AF4FF0B043D3F8943003F0806385
:1011F000B3F1806F01D1012300E000231846BD4602
:101200005DF8047B704780B400AF4FF0B043D3F873
:10121000943003F08053B3F1805F01D1012300E0EB
:1012200000231846BD465DF8047B704780B485B046
:1012300000AF78604FF0B0431A6D4FF0B0417B685B
:1012400013430B654FF0B0431A6D7B681340FB608E
:10125000FB6800BF1437BD465DF8047B7047000093
:1012600080B400AF044B1B68C3F30B031846BD46A4
:101270005DF8047B704700BF002004E080B400AF3D
:10128000044B1B681B0C9BB21846BD465DF8047BE3
:10129000704700BF002004E080B483B000AF7860E6
:1012A00039607B685A683B681B041A437B685A6044
:1012B00000BF0C37BD465DF8047B704780B483B037
:1012C00000AF786039607B685A683B681A437B6876
:1012D0005A6000BF0C37BD465DF8047B704780B490
:1012E00083B000AF786039607B685A693B681B0443
:1012F0001A437B685A6100BF0C37BD465DF8047B1A
:10130000704780B483B000AF786039607B685A69F9
:101310003B681A437B685A6100BF0C37BD465DF8D5
:10132000047B704780B483B000AF786039607B681D
:101330003A689A6000BF0C37BD465DF8047B704781
:1013400080B483B000AF786039607B683A689A6196
:1013500000BF0C37BD465DF8047B704780B400AF1A
:10136000054B1B69044A23F00403136100BFBD460B
:101370005DF8047B704700BF00ED00E080B483B0EF
:1013800000AF78607B68FF225A6200BF0C37BD4611
:101390005DF8047B704780B483B000AF78607B68F1
:1013A000CA225A627B6853225A6200BF0C37BD467C
:1013B0005DF8047B704780B483B000AF786039601B
:1013C0007B689B6823F007023B681A437B689A603E
:1013D00000BF0C37BD465DF8047B704780B500AF99
:1013E000044B4FF400421A6100F030F800F070F83E
:1013F00000BF80BD0040005880B500AF00F07CF811
:1014000000F094F80949002000F040FFFFF77BFD51
:10141000012101200BF048FC00F0EAF900F0F8F996
:1014200000F088FA00F090F800BF80BD4806002068
:1014300080B400AF00BFBD465DF8047B704780B547
:1014400000AF5020FFF764FE00BF80BD80B500AF45
:1014500000F004F800F01AF800BF80BD80B500AFBE
:10146000FFF7BEFE0346002B0DD0FFF7CCFE034670
:10147000002B08D104F012FD04F010FDFFF78EFEE2
:10148000FFF79DFE00BF00BF80BD000080B500AF2C
:101490004FF48010FFF7CAFE3F210C48FFF742FFD0
:1014A0003F210A48FFF74CFF3F210848FFF7F4FEB1
:1014B0003F210648FFF713FF3F210448FFF7FEFED8
:1014C0003F210248FFF71DFF00BF80BD000C005800
:1014D00080B582B000AF00200AF03AF978607B68EE
:1014E000002B05D07B689B791846FFF725FE00BFCF
:1014F00000BF0837BD4680BD80B500AFFFF798FF3D
:10150000FFF79DFF00F002F800BF80BD80B500AF7F
:101510000548FFF740FF00210348FFF74CFF024852
:10152000FFF72CFF00BF80BD0028004080B500AF52
:101530004FF40040FFF71EFE0BF0A4FB0420FFF762
:10154000D1FD00BF80BD000080B588B000AF0BF0BA
:1015500057F9114A00214FF480700BF0D1FC0F4B6A
:101560003B600F4B7B603B4619460E480AF00AFA77
:101570000D4BBB600D4BFB600D4B3B6140F23C5390
:101580007B6107F1080318460BF07CFA0BF032F987
:1015900000BF2037BD4680BDBDB900083407032019
:1015A000B5150008CD1500084C090320400803209C
:1015B000F801032080B483B000AF0346FB7100BF85
:1015C0000C37BD465DF8047B7047000080B588B0DD
:1015D00000AF78607B685B680B33FB61FB691B883D
:1015E0009BB2A3F51243072B60D801A252F823F057
:1015F000111600085316000861160008AD16000801
:101600007D1600088D16000895160008A51600081E
:1016100007F10C0318460AF007F93B7B19467B7B60
:101620001A46BB7B24480CF0D5FA3B7C194623486C
:101630000CF0D0FABB7D1946FB7D1A463B7E204854
:101640000CF0C8FA1F480CF0C5FA786800F070F882
:101650002DE01D480CF0BEFA786800F043F826E053
:101660001A480CF025FBFB6902331968FB69023349
:101670005B681A4616480CF0ADFA18E0FB690233B5
:101680001B68194613480CF0A5FA10E012480CF03C
:10169000A1FA0CE0FB6902331B6819460F480CF0F5
:1016A00099FA04E00E480CF095FA00E000BF00BF84
:1016B0002037BD4680BD00BF8CFC0008B0FC000890
:1016C000CCFC0008E4FC000804FD000828FD00082C
:1016D00078FD0008A0FD0008DCFD000800FE000801
:1016E0003CFE000880B584B000AF78607B685B6822
:1016F0000B33FB60FB680233BB60BB681B78194689
:1017000008480CF067FABB681B78002B03D1064829
:101710000CF0CEFA03E005480CF0CAFA00BF10370F
:10172000BD4680BD60FE000890FE0008CCFE0008AB
:1017300080B58AB000AF786007F1080300221A6014
:101740005A609A60DA6000237B6200233B627B6808
:101750005B680B33FB61FB690233BB61BB691B78C0
:10176000002B28D11D480CF0A3FAFFF7DFFB0F2355
:101770003B727F23BB72FFF781FD7862796A18485C
:101780000CF028FA7B6A9BB2BB82FFF769FD3862D6
:10179000396A14480CF01EFA3B6A9BB2FB8207F1CF
:1017A000080318460AF02AF801F06EFD0021012016
:1017B0000BF07AFA0EE0BB691B78012B06D10A48C0
:1017C0000CF008FA7B6800221A7003E007480CF05E
:1017D00001FA00BF2837BD4680BD00BF04FF0008E6
:1017E00020FF000844FF000864FF000898FF00087D
:1017F00080B500AF002003F0E7F9012003F0E4F921
:10180000022003F0E1F9012003F018FA00BF80BDC7
:1018100080B500AF0121002003F044FA012101202E
:1018200003F040FA0121022003F03CFA00BF80BD22
:1018300080B584B000AF786003F088FBB8607B6847
:10184000FB60FB68B3F1FF3F0AD003F097FB034650
:101850001A46FB681344FB6002E0FFF77FFD30BFD0
:1018600003F074FB0246BB68D31AFA689A42F4D8B4
:1018700000BF00BF1037BD4680BD80B500AF4FF040
:10188000FF300BF041FA00BF80BD80B400AF00BF55
:10189000BD465DF8047B704780B582B000AF7860CC
:1018A00039604FF0FF300BF02FFA00BF0837BD460C
:1018B00080BD80B582B000AF786000214FF48070A9
:1018C0000BF040FB00BF0837BD4680BD80B582B03D
:1018D00000AF786002200BF0A1FB00BF0837BD46C7
:1018E00080BD80B582B000AF786002200BF0B6FBFF
:1018F00000BF0837BD4680BD80B582B000AF03464B
:10190000FB80FB88102B06D0102B0DDC012B05D0A3
:10191000022B06D008E001F033FF06E001F040FFA3
:1019200003E001F044FF00E000BF00BF0837BD4600
:1019300080BD000080B500AF034B012203490020A9
:1019400000F010FF00BF80BD511900087002002098
:1019500080B500AF154B1B88FF2B1ED8144B1B788E
:101960000D2B0FD1134914480CF034F900F028F86E
:101970000E4B00221A804FF4807200210D480CF0AB
:1019800077FA0AE0094B1B885A1C91B2074A11806A
:101990001A46074B1978074B9954084B0122044902
:1019A000002000F0DFFE00BF80BD00BF78030020F4
:1019B0007002002078020020CCFF000851190008B6
:1019C00080B500AF1C491D48FEF7DAFB0346002B2B
:1019D00009D11B480CF06CF91A4B1B4A1A601948C4
:1019E00003F0F0FF26E019491448FEF7C9FB03464F
:1019F000002B0AD116480CF05BF9124B4FF0B05295
:101A00001A60104803F0DEFF14E012490B48FEF79D
:101A1000B7FB0346002B09D10F480CF049F9094BDD
:101A20000E4A1A60074803F0CDFF03E003490C4853
:101A30000CF0D0F800BF80BDDCFF00087802002069
:101A4000E0FF00086802002004000016E8FF00081C
:101A5000ECFF0008F4FF0008F8FF00080100001682
:101A60000000010880B483B000AF7860064BD3F863
:101A7000802005497B681343C1F8803000BF0C37D4
:101A8000BD465DF8047B70470008005880B483B001
:101A900000AF7860054B1A6804497B6813430B60FC
:101AA00000BF0C37BD465DF8047B70470008005846
:101AB00080B483B000AF0D4B9B6A9BB27B600B4B35
:101AC0009B6A9BB23B6005E03B687B60074B9B6A6F
:101AD0009BB23B607A683B689A42F5D13B681846F6
:101AE0000C37BD465DF8047B704700BF00280040FE
:101AF00080B485B000AF03460A46FB711346BB7144
:101B0000BA791D4913465B001344DB000B441533BF
:101B10001B78FB73FB7B062B09D0FA7B1649134617
:101B20005B001344DB000B441433FA791A70FA7922
:101B3000114913465B001344DB000B441533FA7B59
:101B40001A70FA790C4913465B001344DB000B440E
:101B50001433BA791A70BA79074913465B001344F3
:101B6000DB000B441533FA791A7000BF1437BD46F9
:101B70005DF8047B704700BF7C03002080B485B013
:101B800000AF03460A46FB711346BB71294B1B7815
:101B9000DBB2BA799A4232D0BA79274913465B0050
:101BA0001344DB000B4414331B78FB73FA7B22498C
:101BB00013465B001344DB000B441533FA791A70AB
:101BC000FA791D4913465B001344DB000B441533BF
:101BD000BA791A70FA79184913465B001344DB008E
:101BE0000B441433FA7B1A70BA79134913465B001D
:101BF0001344DB000B441433FA791A7014E0FA79B9
:101C00000D4913465B001344DB000B441533BA79CE
:101C10001A70BA79084913465B001344DB000B4481
:101C20001433FA791A7000BF1437BD465DF8047B8F
:101C3000704700BF0C0400207C03002080B584B0F6
:101C400000AF0346FB714E4B1B78DBB2062B18D15D
:101C50004B4B1B78DAB24B4B1A70494AFB79137025
:101C6000FA79494913465B001344DB000B441533F2
:101C700006221A70454B4FF0FF321A600023FB8199
:101C800078E000F009F90346FB81FA793E491346F2
:101C90005B001344DB000B4408331968FB89FA79B5
:101CA0001944394813465B001344DB0003440833EE
:101CB0001960FA79344913465B001344DB000B4486
:101CC00008331B68BB602E4B1B78DBB219462E4ACB
:101CD0000B465B000B44DB00134408331B68BA68F7
:101CE0009A4237D3264B1B787B737A7B264913465F
:101CF0005B001344DB000B4415331B783B7313E08C
:101D00007A7B214913465B001344DB000B441533F7
:101D10001B787B737A7B1C4913465B001344DB0002
:101D20000B4415331B783B733B7B062B0BD03A7B64
:101D3000154913465B001344DB000B4408331B6852
:101D4000BA689A42DCD27A7BFB7911461846FFF7D3
:101D5000CFFE0FE00A4B1B78DAB2FB79114618462A
:101D6000FFF70CFF064B1B78DAB2064B1A70044AD9
:101D7000FB791370FB8918461037BD4680BD00BF44
:101D80000C0400200D0400207C030020100400201F
:101D900080B485B000AF03460A46FB711346BB71A1
:101DA000394B1B78DBB2FA799A4211D1364B1B784A
:101DB000DAB2364B1A70FA79354913465B00134490
:101DC000DB000B4415331B78DAB22F4B1A703EE060
:101DD000FA792F4913465B001344DB000B4414339C
:101DE0001B78FB73FA792A4913465B001344DB0026
:101DF0000B4415331B78BB73F979FA7B24480B46E7
:101E00005B000B44DB00034415331B78D8B2204938
:101E100013465B001344DB000B44153302461A7073
:101E2000BB7B062B13D0F979BA7B19480B465B00B4
:101E30000B44DB00034414331B78D8B21449134617
:101E40005B001344DB000B44143302461A70FA792A
:101E50000F4913465B001344DB000B440C33012293
:101E60001A70094B1B78DBB2062B07D1BB79002B0C
:101E700004D1084B4FF0FF321A6000BF00BF143787
:101E8000BD465DF8047B70470C0400200D04002063
:101E90007C0300201004002080B582B000AF1A4BF4
:101EA0001B68B3F1FF3F26D0FFF702FE7860164BA8
:101EB0001B687A689A4205D8134B1A687B68D31A54
:101EC0007B600AE0114B1B881A467B68D31A3B6083
:101ED0000D4B1B683A6813447B600D4B1B781A4608
:101EE0007B6802FB03F37B600A4B1B781A467B6816
:101EF000D3407B6001E000237B607B689BB2184687
:101F00000837BD4680BD00BF100400201804002023
:101F1000160400201504002080B582B000AF0346EF
:101F2000FB80FB88002B08D1FFF7C2FD0346214A46
:101F30001360032003F0B7F939E0FB88012B03D8C5
:101F40001D4B1B78012B02D0FB88013BFB8000BF9F
:101F50001A4B1B68DB6803F00403002BF8D0174B07
:101F60001B68DB68DAB2154B1B6862F49062DA60BA
:101F7000134B4FF40022DA60032003F0A2F9114B57
:101F80005B691B0C1B04FA880E4913434B61FFF776
:101F90008FFD0346074A1360084B1B689A68074B7E
:101FA0001B6842F480629A60AFF3008000BF08377C
:101FB000BD4680BD10040020150400204806002006
:101FC000000800580028004080B584B000AF454BA1
:101FD0009B6803F48063B3F5806F07D100BF424B69
:101FE0001B68DB6803F00403002BF8D13E4B1B6831
:101FF0009A683D4B1B6822F480629A603B4B1B78C9
:10200000FB73FA7B3A4913465B001344DB000B4435
:1020100008331B68BB60FFF73FFF0346FB80FB886C
:10202000BA689A4205D20023BB81324B01221A7052
:102030004DE0FB88304A128892B213441A46BB68BE
:10204000934206D92C4B1B88BB812A4B00221A7065
:102050003DE0BB689AB2FB88D31ABB81254B0122B5
:102060001A7034E0FA7B224913465B001344DB000C
:102070000B4408331A68FB889A420AD2FA7B1C493F
:1020800013465B001344DB000B44083300221A6044
:1020900013E0FA7B164913465B001344DB000B4444
:1020A00008331968FB88FA7BC91A114813465B008C
:1020B0001344DB00034408331960FA7B0C491346D0
:1020C0005B001344DB000B4415331B78FB73FB7B75
:1020D000062BC7D1BB891846FFF71EFF00BF10377C
:1020E000BD4680BD00280040480600200C040020AA
:1020F0007C030020140400201A04002080B58AB05C
:1021000000AFEFF310837B617B697B6272B600BF27
:10211000594B1B68CA225A62574B1B6853225A629A
:10212000554B1B689A68544B1B6822F480629A6076
:10213000524B1B7887F8233097F8232050491346D9
:102140005B001344DB000B440C331B78DBB2022B27
:102150006ED197F823204A4913465B001344DB00F5
:102160000B441B68FB6197F82320454913465B002D
:102170001344DB000B4410331B68BB61414B1B78DD
:10218000DBB2002B4CD097F823203D4913465B006F
:102190001344DB000B440D331B78DBB2012B24D13D
:1021A00097F8233001211846FFF7F2FD7B6A3B6167
:1021B0003B6983F3108800BF97F82320304913460A
:1021C0005B001344DB000B4404331A6897F8233098
:1021D0001146184600F032FA274B1B68CA225A6291
:1021E000254B1B6853225A6212E07B6AFB60FB6836
:1021F00083F3108800BF97F82330184600F09AF94F
:102200001D4B1B68CA225A621B4B1B6853225A6221
:1022100097F82330FA691946B86900F095FA22E078
:10222000FFF7D2FE7B6ABB60BB6883F310881AE0BD
:1022300000BF114B1B68DB6803F00403002BF8D0D0
:102240000D4B1B68DB68DAB20B4B1B6862F49062C3
:10225000DA600D4B4FF40022DA607B6A7B607B68AA
:1022600083F3108800BF044B1B68FF225A6200BF33
:102270002837BD4680BD00BF480600200C04002062
:102280007C030020140400200008005880B588B0AA
:1022900000AF03463960FB715E4B1B68CA225A626D
:1022A0005C4B1B6853225A625B4B9B685A4A43F053
:1022B00020039360584B9B68DBB203F00703DBB24B
:1022C000C3F10403DAB2554B1A70534B1B6903F484
:1022D000FE034FF4FE023A613A6992FAA2F2FA6002
:1022E000FA687A617A69002A01D1202203E07A69CA
:1022F000B2FA82F2D2B2D340DBB20133DAB2484B47
:102300001A70454B1B699BB2C3F30E039BB201339A
:102310009AB2444B1A80434B1B88013B404A1278C7
:1023200002FB03F3A3F5A0733C4A1278D340BB61D0
:10233000BB694FF6FE72934204D93B4B4FF6FF72D6
:102340001A8003E0BB699AB2374B1A804FF4002021
:10235000FFF79CFB4FF40020FFF784FBFB79002B79
:102360003DD1324B01221A70314B4FF0FF321A60CF
:102370000023FB770CE0FA7F2E4913465B001344E1
:10238000DB000B440C3300221A70FB7F0133FB7718
:10239000FB7F052BEFD9284B06221A701D4B1B68BB
:1023A0009A681C4B1B6822F480629A60194B1B6868
:1023B000DB68DAB2174B1B6862F49062DA601F4B7D
:1023C0004FF40022DA60032002F07BFF114B1B6800
:1023D0009A68104B1B6842F480429A6009E00D4BEA
:1023E0001B68DB6803F48063002B02D0032002F03B
:1023F0005AFF084B1B68FF225A6200220321032068
:1024000002F00FFF032002F026FF00BF2037BD4679
:1024100080BD00BF480600200028004015040020B1
:1024200016040020180400201A04002014040020C0
:10243000100400207C0300200C0400200008005839
:1024400080B48BB000AFF860B9603B601346FB719D
:10245000002387F82630EFF31083FB61FB693B62B2
:1024600072B600BF04E097F82630013387F82630B3
:1024700097F82630052B0CD897F826202C491346C0
:102480005B001344DB000B440C331B78DBB2002BE6
:10249000E9D197F82630062B38D097F82620244922
:1024A00013465B001344DB000B440C3301221A700B
:1024B0003B6ABB61BB6983F3108800BF97F8262095
:1024C0001B4913465B001344DB000B441033FA68CE
:1024D0001A6097F82620164913465B001344DB0068
:1024E0000B440D33FA791A7097F8262010491346D9
:1024F0005B001344DB000B443A681A60BB6897F832
:1025000026201A70002387F8273008E03B6A7B6199
:102510007B6983F3108800BF012387F8273097F881
:10252000273018462C37BD465DF8047B704700BF46
:102530007C03002080B586B000AF0346FB71EFF34B
:102540001083FB60FB687B6172B600BF032002F062
:1025500090FE344B1B68CA225A62324B1B685322CE
:102560005A62FA79304913465B001344DB000B448E
:102570000C331B78DBB2022B42D1FB7900211846C9
:10258000FFF706FC294B1B78FB74FB7C062B2FD135
:10259000274B9B6803F48063B3F5806F07D100BFBE
:1025A000204B1B68DB6803F00403002BF8D11D4BA4
:1025B0001B689A681B4B1B6822F480629A6000BFFC
:1025C000184B1B68DB6803F00403002BF8D0154B95
:1025D0001B68DB68DAB2134B1B6862F49062DA6046
:1025E000144B4FF40022DA60032002F06AFE07E089
:1025F000114B1B78DBB2FA7C9A4201D0FFF7E4FC66
:10260000084B1B68FF225A62032002F024FE7B69FC
:10261000BB60BB6883F3108800BF00BF1837BD469E
:1026200080BD00BF480600207C0300200C04002071
:1026300000280040000800580D04002080B586B036
:1026400000AF03463960FB71FA793B4913465B00E2
:102650001344DB000B440C331B78DBB2022B03D199
:10266000FB791846FFF766FFEFF31083FB60FB680A
:102670007B6172B600BF032002F0FBFD2F4B1B688D
:10268000CA225A622D4B1B6853225A62FA792A4990
:1026900013465B001344DB000B440C3302221A7018
:1026A000FA79254913465B001344DB000B440833D9
:1026B0003A681A60FA79204913465B001344DB003C
:1026C0000B4404333A681A60FB791846FFF7B6FAF0
:1026D00003467B821A4B1B787B741A4B1B78DBB248
:1026E0007A7C9A4202D0FFF76FFC13E0FA79124924
:1026F00013465B001344DB000B44083319687B8AE4
:10270000FA79C91A0C4813465B001344DB000344F2
:1027100008331960094B1B68FF225A62032002F03C
:102720009AFD7B69BB60BB6883F3108800BF00BF64
:102730001837BD4680BD00BF7C030020480600203E
:102740000C0400200D04002080B584B000AFF860B8
:102750000B467A60FB727B68984700BF1037BD4616
:1027600080BD000080B584B000AFB9607B600346D7
:10277000FB731346BB81FB7B002B0CD1084A7B68A3
:102780001360084B084A1A60BB891A46B9680548A5
:1027900005F0B2FB00E000BF00BF1037BD4680BDB2
:1027A0001C040020F40400200038014080B586B0ED
:1027B00000AFB9607B600346FB731346BB81002307
:1027C000FB750023BB75FB7B002B0ED1174A7B6882
:1027D0001360174B174A1A60BB891A46B968144828
:1027E00005F0D6FB0346FB7500E000BFFB7D032B25
:1027F00016D801A252F823F0092800080F28000873
:10280000152800081B2800080023BB7509E00123D8
:10281000BB7506E00223BB7503E00323BB7500E034
:1028200000BFBB7D18461837BD4680BD2004002080
:10283000F40400200038014080B582B000AF786019
:102840007B681B681A46094B9A4207D1084B1B68E4
:10285000002B05D0064B1B68984701E000BF00E045
:1028600000BF00BF0837BD4680BD00BF0038014033
:102870001C04002080B582B000AF78607B681B68C4
:102880001A46094B9A4207D1084B1B68002B05D00A
:10289000064B1B68984701E000BF00E000BF00BF87
:1028A0000837BD4680BD00BF00380140200400202D
:1028B00080B483B000AF78604FF0B043D3F890306D
:1028C00023F018024FF0B0417B681343C1F89030F9
:1028D00000BF0C37BD465DF8047B704780B485B0FF
:1028E00000AF78604FF0B0439A6C4FF0B0417B6816
:1028F00013438B644FF0B0439A6C7B681340FB60CA
:10290000FB6800BF1437BD465DF8047B704780B498
:1029100085B000AF78604FF0B043DA6C4FF0B04153
:102920007B681343CB644FF0B043DA6C7B68134091
:10293000FB60FB6800BF1437BD465DF8047B704741
:1029400080B500AF02F094FAFEF748FD00F012F8EF
:1029500000F06CF800F08AF800F043F900F024F978
:1029600000F0EEF800F0E4F8FEF746FDFEF785FF14
:10297000FCE7000080B59AB000AF07F120034822C1
:10298000002118460BF074FA3B1D00221A605A60B1
:102990009A60DA601A615A619A6103F07FFA002046
:1029A000FFF786FF204B1B6823F4C0631E4A43F4E5
:1029B000007313601C4B1B6803F4C0633B603B68EF
:1029C00007233B624FF480337B620123BB624FF4E9
:1029D0008073FB6240233B630023FB6407F1200309
:1029E000184603F0EFFD0346002B01D000F006F976
:1029F0006F237B600223BB600023FB6000233B61ED
:102A000000237B610023BB610023FB613B1D01218F
:102A1000184604F04BF90346002B01D000F0EEF805
:102A200000BF6837BD4680BD0004005880B594B033
:102A300000AF3B465022002118460BF019FA4FF424
:102A400040533B604FF480437B640223BB641023FC
:102A5000FB643B46184604F066FD0346002B01D09C
:102A600000F0CCF800BF5037BD4680BD80B500AF48
:102A7000064B074A1A60054803F08AF90346002B03
:102A800001D000F0BBF800BF80BD00BF24040020CF
:102A9000000C005880B500AF234B244A1A60224B2B
:102AA0004FF4E1325A60204B00229A601E4B002204
:102AB000DA601D4B00221A611B4B0C225A611A4B23
:102AC00000229A61184B4FF40042DA61164B002243
:102AD0001A62154B00225A62134B00229A62124866
:102AE00005F0BAF90346002B01D000F087F8002169
:102AF0000D4807F00CFA0346002B01D000F07EF8D9
:102B00000021094807F041FA0346002B01D000F0EC
:102B100075F8054807F0C2F90346002B01D000F014
:102B20006DF800BF80BD00BFF404002000380140F4
:102B300080B400AF00BFBD465DF8047B7047000065
:102B400080B500AF164B174A1A60154B00225A6029
:102B5000134B0F229A60124B47F6FF72DA60104B4C
:102B600000221A610E4B00229A610D4B0022DA619D
:102B70000B4B00225A610A4804F05CFF0346002B0D
:102B800001D000F03BF800220021054805F052F882
:102B90000346002B01D000F031F800BF80BD00BF1C
:102BA000480600200028004080B500AF0420FFF751
:102BB00095FE0220FFF792FE0120FFF78FFE002214
:102BC0000F210E2002F02DFB0E2002F044FB00220C
:102BD0000F213A2002F025FB3A2002F03CFB00BF17
:102BE00080BD80B500AF0420FFF791FE0120FFF704
:102BF0008EFE0220FFF78BFE00BF80BD80B400AFC9
:102C000000BFBD465DF8047B704780B400AF4FF055
:102C1000B043D3F890304FF0B04243F40043C2F8D1
:102C2000903000BFBD465DF8047B704780B485B02E
:102C300000AF78604FF0B043DA6C4FF0B0417B6882
:102C40001343CB644FF0B043DA6C7B681340FB60F6
:102C5000FB6800BF1437BD465DF8047B704780B445
:102C600085B000AF78604FF0B0431A6D4FF0B041BF
:102C70007B6813430B654FF0B0431A6D7B681340BC
:102C8000FB60FB6800BF1437BD465DF8047B7047EE
:102C900080B485B000AF78604FF0B0439A6D4FF0CC
:102CA000B0417B6813438B654FF0B0439A6D7B68EE
:102CB0001340FB60FB6800BF1437BD465DF8047B22
:102CC000704780B485B000AF78604FF0B043DA6DE4
:102CD0004FF0B0417B681343CB654FF0B043DA6DE2
:102CE0007B681340FB60FB6800BF1437BD465DF88E
:102CF000047B704780B485B000AF78604FF0B0437C
:102D00001A6E4FF0B0417B6813430B664FF0B0432F
:102D10001A6E7B681340FB60FB6800BF1437BD462A
:102D20005DF8047B704780B500AF4FF40020FFF7DB
:102D300096FF002200212E2002F073FA2E2002F0CE
:102D40008AFA00BF80BD000080B582B000AF786015
:102D50007B681B680D4A934213D14FF48010FFF734
:102D60007EFF002200212C2002F05BFA2C2002F0D2
:102D700072FA002200212D2002F053FA2D2002F0D9
:102D80006AFA00BF0837BD4680BD00BF000C00587E
:102D900080B5A0B000AF786007F16C0300221A6024
:102DA0005A609A60DA601A6107F10C035022002120
:102DB00018460BF05DF87B681B68684A93426ED139
:102DC0000223FB600023BB6207F10C03184604F0EA
:102DD000AAFB0346002B01D0FFF710FF0120FFF7ED
:102DE00070FF0120FFF722FF0C23FB6602233B67E5
:102DF00000237B670323BB670823FB6707F16C0392
:102E000019464FF0904002F0FFFD554B554A1A60AD
:102E1000534B11225A60524B10229A60504B0022A1
:102E2000DA604F4B80221A614D4B00225A614C4BA5
:102E300000229A614A4B0022DA61494B00221A6251
:102E4000474802F04DFA0346002B01D0FFF7D6FEAB
:102E50004FF08853FB6500233B66002387F86430FE
:102E6000002387F865300123BB6607F15C03194630
:102E70003B4802F067FD0346002B01D0FFF7BEFE82
:102E80007B68374ADA67364A7B6893620022002102
:102E9000252002F0C6F9252002F0DDF95AE07B6812
:102EA0001B68314A934255D10123FB6000237B62AA
:102EB00007F10C03184604F036FB0346002B01D043
:102EC000FFF79CFE4FF48040FFF714FF0220FFF74E
:102ED000ADFEC023FB6602233B6701237B67032310
:102EE000BB670723FB6707F16C0319461F4802F015
:102EF0008BFD1F4B1F4A1A601D4B0F225A601C4B43
:102F000010229A601A4B0022DA60194B80221A6153
:102F1000174B00225A61164B00229A61144B002273
:102F2000DA61134B00221A62114802F0D9F9034604
:102F3000002B01D0FFF762FE7B680D4ADA670C4A6E
:102F40007B68936200220021242002F06AF9242089
:102F500002F081F900BF8037BD4680BD008000408F
:102F60008805002044000240003801400004004869
:102F7000E80500204404024080B596B000AF7860B8
:102F800007F108035022002118460AF071FF7B6800
:102F90001B68144A934220D14FF40063BB604FF486
:102FA0008073BB6407F10803184604F0BCFA0346BB
:102FB000002B01D0FFF722FEFFF727FE4FF48060C1
:102FC000FFF766FE00220021032002F02AF9032009
:102FD00002F041F9786804F0E9FE00BF5837BD46B9
:102FE00080BD00BF0028004080B400AF00BFBD46D8
:102FF0005DF8047B704780B400AFFEE780B400AF9B
:10300000FEE780B400AFFEE780B400AFFEE780B417
:1030100000AF00BFBD465DF8047B704780B400AFD1
:1030200000BFBD465DF8047B704780B400AF00BFB1
:10303000BD465DF8047B704780B500AF01F072FFBC
:1030400000BF80BD80B500AFFFF758F800BF80BD5E
:1030500080B500AF024802F024FB00BF80BD00BF76
:103060008805002080B500AF024805F011F800BFC8
:1030700080BD00BFF404002080B500AF024805F019
:1030800007F800BF80BD00BF6004002080B500AF1E
:1030900001F00CFC00BF80BD80B500AF01F03CFC2E
:1030A00000BF80BD80B500AF02F04EFE00BF80BD06
:1030B00080B500AF024802F0F4FA00BF80BD00BF47
:1030C000E805002080B500AF102002F025FE00BF0B
:1030D00080BD80B500AF012002F01EFE00BF80BDA4
:1030E00080B500AF022002F017FE00BF80BD80B4A3
:1030F00000AF01231846BD465DF8047B704780B5DC
:1031000082B000AF786039600AF004FF03461622EF
:103110001A604FF0FF3318460837BD4680BD80B5B2
:1031200082B000AF78604FF0FF317868FFF7E7FFBB
:10313000FEE780B586B000AFF860B9607A60002322
:103140007B610AE0AFF300800146BB685A1CBA609D
:10315000CAB21A707B6901337B617A697B689A42D3
:10316000F0DB7B6818461837BD4680BD80B483B05D
:1031700000AF78604FF0FF3318460C37BD465DF85E
:10318000047B704780B483B000AF786039603B68DF
:103190004FF400525A60002318460C37BD465DF8C4
:1031A000047B704780B483B000AF78600123184679
:1031B0000C37BD465DF8047B704780B485B000AF26
:1031C000F860B9607A60002318461437BD465DF890
:1031D000047B704780B586B000AF7860144A154B09
:1031E000D31A7B617B693B61134B1B68002B02D1B7
:1031F000114B124A1A60104B1A687B6813443A69E3
:103200009A4207D20AF086FE03460C221A604FF05B
:10321000FF3309E0084B1B68FB60074B1A687B68AB
:103220001344054A1360FB6818461837BD4680BD35
:1032300000000320001000006C060020C0190020D0
:1032400080B400AF034B1B681846BD465DF8047B95
:10325000704700BF8075FF1F80B400AF034B1B6831
:10326000DBB21846BD465DF8047B70478475FF1FCE
:1032700080B400AF034B1B681B0A1846BD465DF8BF
:10328000047B70478475FF1FB0B590B000AF9223E8
:1032900087F83F30314B3C1D1D460FCD0FC40FCD7D
:1032A0000FC40FCD0FC495E8070003C4228000F0BF
:1032B00085FA0121022009F0F7FC294A002110209B
:1032C00009F01EFE3B1D184608F06AFA034687F80F
:1032D0003E3097F83E30002B08D097F83E30194624
:1032E00020480AF077FCFFF789FC02E01E480AF04C
:1032F00071FC00F079FA09F0BBF91C4A00210120A9
:1033000009F0FEFD1A4A0021022009F0F9FD194BCF
:10331000002283F88020202007F06BFE034687F808
:103320003F3097F83F30002B06D097F83F301946D2
:1033300011480AF04FFC02E010480AF04BFC0A204A
:103340000AF05AFC00F0E2FC0D4B00220D4900206F
:10335000FFF776F800BF4037BD46B0BDFC0001085E
:1033600011B400082000010858000108D93A0008EB
:103370003D3B00088406002080000108C4000108CD
:10338000C13B000805070020F0B597B006AF786094
:103390007B680133BB63BB6B02337B630023FB633E
:1033A000922387F83330BB6B1B78FF2B09D0FF2BA0
:1033B00000F3BC81052B00F0CE803E2B00F0E980AD
:1033C000B4E1A64B01221A70BB6B0233FB62FB6AAD
:1033D0001B889BB240F60202934233D040F60202B1
:1033E000934200F3B480042B00F0A68040F2074221
:1033F000934240F0AC80FB6A02337B627B6A1B78AD
:10340000022B40F0A6807B6A5B78002B40F0A18005
:10341000002001F02DFC92480AF04AFC91480AF085
:10342000D9FB914B93F88230012B40F092808E4B68
:1034300093F88030062B00F08C800021022009F0E8
:1034400081FD86E0FB6A0233BB62002007F0D1FDFC
:10345000034687F8333097F83330002B06D097F8BF
:103460003330194681480AF0B5FB02E080480AF083
:10347000B1FBBB6A9A787F4B1A70BB6AB3F8033012
:103480009AB27C4B5A80BB6AB3F805309AB2794B3A
:103490009A80BB6AB3F807309AB2764BDA80BB6A7F
:1034A000B3F809309AB2734B1A81BB6AB3F80B3088
:1034B0009AB2704B5A816C4BD88A6E4B99886D4B7F
:1034C000DC886C4B1D896B4B5B896A4A127801263C
:1034D00004960392102202921022019200932B462E
:1034E000224607F0FEFD034687F8333097F8333065
:1034F000002B09D097F8333019465F480AF06AFB71
:10350000022001F09BFB02E05C480AF063FB2020F4
:1035100007F06FFD034687F8333097F83330002B00
:1035200006D097F83330194650480AF053FB11E0A3
:103530004F480AF04FFB0DE0012001F07FFB4A4BA2
:1035400093F881300A211846FFF778F802E000BFAF
:10355000EFE000BFEDE07B6BB3F801309AB2424B75
:10356000DB8A9A4240F0E4803F4B0022DA823E4BF5
:10357000002283F8802042480AF02CFB374B0122BE
:103580001A70394BDA8A354B5A80344800F004FC03
:10359000CEE0BB6B02333B623B6A1B78012B02D04F
:1035A000022B2FD0C1E03B6A0133FB60FB68B3F80C
:1035B00001309AB22C4BDA822B4B062283F8802002
:1035C00030480AF007FB254B00221A70264BDA8A96
:1035D000224B5A80214800F0DFFB234BDB8A184640
:1035E00007F086F90346FB72FB7A002B06D12648CA
:1035F0000AF0F0FA25480AF0EDFA96E024480AF0BD
:10360000E9FA92E03B6A0133FB61FB695B78FB7688
:10361000FB695B7ABB76FB69093301337B6100236D
:10362000FB63FB7E002B7FD17AE0FB6B7A6913444E
:103630001B78FB74FB6B01337A6913441B78BB74F2
:10364000BB7CFF2B26D0FF2B5EDC162B5ED0162B0F
:103650005ADC012B5CD00A2B5DE000BF8006002005
:103660003801010848010108840600208000010893
:10367000C40001080807002078010108C8010108FA
:1036800008020108340201086402010898020108D6
:10369000C8020108FB7C062B3CD9FB6B02337A691C
:1036A00013441B78012B35D124480AF093FAFB6BA5
:1036B00003337A6913441B78832B23D120480AF003
:1036C00089FA204B012283F88220FB699A781E4BED
:1036D0001A70FB69DA781D4B1A70FB691A791B4B5B
:1036E0005A70FB695A79194B9A70FB699A79174B92
:1036F000DA70FB69DA79154B1A71FB691A7A134B88
:103700005A7100E000BF05E000BF04E000BF02E026
:1037100000BF00E000BFFB7C0133FA6B1344FB6386
:10372000BB7EFA6B9A4280DB00BF02E000BF00E084
:1037300000BF012318464437BD46F0BD0803010809
:1037400028030108840600207E0600207806002059
:1037500080B483B000AF0346FB80084BDB8AFA8855
:103760009A4203D1054B93F8803000E000231846BD
:103770000C37BD465DF8047B704700BF840600200F
:1037800080B500AF00F050FE0346062B04D00021A8
:10379000012009F0D7FB01E000F030FB00BF80BD45
:1037A00080B400AF00BFBD465DF8047B704780B4B5
:1037B00000AF00BFBD465DF8047B704780B582B0A6
:1037C00000AF064B3B60064B7B603B461946054805
:1037D00007F002FE00BF0837BD4680BD2800032069
:1037E000D53C00089D3C0008F0B58DB006AF002325
:1037F0003B809223FB759C480AF05AFA07F04DFC77
:103800000346FB75FB7D002B05D0FB7D19469748D1
:103810000AF0E0F902E096480AF04AFA00F0D8F916
:1038200038613A690621002007F0F7FA0346FB7574
:10383000FB7D002B05D0FB7D19468E480AF0CAF9A6
:1038400021E08D480AF034FA3B6905331B781846AD
:103850003B6904331B781C463B6903331B781D46C8
:103860003B6902331B781A463B6901331B781946C2
:103870003B691B780293019100922B462246014638
:103880007E480AF0A7F97E4A1021182007F0C5FAF1
:103890000346FB75FB7D002B05D0FB7D194679485F
:1038A0000AF098F902E078480AF002FA774A102103
:1038B000082007F0B2FA0346FB75FB7D002B05D00C
:1038C000FB7D194672480AF085F902E071480AF05A
:1038D000EFF91821012007F025FB0346FB75FB7D5E
:1038E000002B05D0FB7D19466B480AF073F902E006
:1038F0006A480AF0DDF906F02DFF0346FB75FB7DF3
:10390000002B05D0FB7D194665480AF063F902E0FB
:1039100064480AF0CDF90023FB73FB7B43F00403FA
:10392000FB73FB7B002B2BD05F4BBB60BA1DF87B7E
:10393000BB1C01933B1D009313460722002106F098
:10394000C9FC0346FB75FB7D002B05D0FB7D1946AA
:1039500056480AF03FF902E055480AF0A9F9FC88F8
:10396000BD88B868FCF76CFC0346DAB2BB6800930C
:10397000134600222946204606F011FF0346FB7538
:10398000F88879883B4600930223002206F007FF5F
:103990000346FB75474B01221A70464B1B781846AD
:1039A00006F080FB0346FB75FB7D002B05D0FB7DFD
:1039B000194641480AF00EF902E040480AF078F949
:1039C0003C4B01225A703B4B08221A71394B102292
:1039D0005A71384B0122DA70364B394A9A60354BAE
:1039E00001229A70334B9C78324B5D78314B1B79B6
:1039F000304A52792F49C9782E48806800260496AB
:103A0000039002910192009300230122294620464F
:103A100006F09CFB0346FB75FB7D002B05D0FB7D70
:103A2000194628480AF0D6F802E027480AF040F97B
:103A3000204B9B78002B0FD006F0F9FC0346FB755A
:103A4000FB7D002B05D0FB7D194620480AF0C2F80B
:103A500002E01F480AF02CF91E480AF0BBF800BF2C
:103A60001C37BD46F0BD00BF4C03010878030108B8
:103A7000A8030108C8030108240401087004010810
:103A8000B80D0108AC04010804050108C80D0108BF
:103A90004C050108A4050108EC0501082C060108E5
:103AA0005C06010890060108B4060108BC0601087E
:103AB000EC060108840600200C0701084C070108E9
:103AC00007B201007C070108C807010804080108C3
:103AD000440801087408010880B582B000AF134B98
:103AE00093F88030062B1DD0002001F0A7F8104875
:103AF0000AF0DEF8012300224FF448714FF44870B9
:103B000006F0B9FC0346FB71FB79002B03D1094891
:103B10000AF060F806E0022001F090F806480AF08A
:103B200059F800BF00BF0837BD4680BD840600209D
:103B3000A0080108AC080108DC08010880B58AB0BB
:103B400008AF1B480AF046F81A4B93F88030062B52
:103B500029D0194B1A7810230693102305934FF49C
:103B6000FA730493002303935023029328230193B1
:103B700000230093114B4FF448714FF4487006F046
:103B80000EFD0346FB71FB79002B04D1094B042287
:103B900083F8802007E0022001F050F8054B002256
:103BA00083F8802000BF00BF0837BD4680BD00BF3E
:103BB0000C090108840600207E06002078060020FB
:103BC00080B500AF012001F053F800BF80BD0000B8
:103BD00080B586B000AFFFF733FB38613B69B3F1C6
:103BE000FF3F23D0FFF744FBB860FFF735FB786059
:103BF0003B69DAB2164B1A703B691B0ADAB2144BF6
:103C00005A707B68DAB2124B9A70BB68DAB2104B0A
:103C1000DA70BB681B0ADAB20D4B1A71BB681B0C59
:103C2000DAB20B4B5A710A4B7B610BE0002007F0B4
:103C30008FFDF860FB68002B02D0FB687B6101E020
:103C4000044B7B617B6918461837BD4680BD00BFB9
:103C500070060020B00D010880B582B000AF78601A
:103C60000021102009F06EF900BF0837BD4680BD65
:103C700080B582B000AF7860012009F0CFF900BFB5
:103C80000837BD4680BD80B582B000AF78600120A6
:103C900009F0E4F900BF0837BD4680BD80B584B0A7
:103CA00000AF78607B68FB60FB685B680833184690
:103CB00008F030FD0346FB72FB7A002B03D0FB6853
:103CC00001221A7003E0FB6800221A7000BF10374F
:103CD000BD4680BD80B584B000AF0346FB71FB7963
:103CE000002B02D0012B06D00BE0FF23FB60F8680D
:103CF00009F054F905E0FF23FB60F86809F06EF95C
:103D000000BF00BF1037BD4680BD000080B582B047
:103D100000AF0023FB711A4A0021042009F0F0F8DB
:103D2000184A0021202009F0EBF8174B00221A70E6
:103D3000154B0022DA80144B00225A70124B0022DD
:103D40009A70114B0122DA700F4B00221A71002376
:103D5000FB7108E0FB790D4A1B01134400221A7025
:103D6000FB790133FB71FB79002BF3D0084808F095
:103D7000B7FC084809F09CFF00BF0837BD4680BD6E
:103D8000FD440008B5440008240700201407002063
:103D90000D3E00083809010880B584B000AF786096
:103DA0007B681B78002B02D0012B05D01EE07B68BE
:103DB0005A88104BDA8019E00023FB730D4B002268
:103DC000DA8005E0FB7B0C4A1B01134400221A70C9
:103DD000FB7B002B06D1FB7B074A1B0113441B789E
:103DE000002BEFD1002000F043FF00BF00BF1037D1
:103DF000BD4680BD240700201407002080B500AF19
:103E00000021202009F09EF800BF80BD80B594B04D
:103E100000AF7860002387F845307B6801333B644E
:103E20003B6C1B78FF2B40F0B4823B6C0233FB638E
:103E3000FB6B1B889BB2A3F604430C2B00F29D8204
:103E400001A252F823F000BF8D4100087B43000817
:103E5000334000087B4300087B4300087B43000895
:103E60007D3E00087B4300087B4300087B4300083D
:103E70007B430008A942000825430008FB6B02337E
:103E80003B633B6B1A785B781B021343FB85002373
:103E900087F84D302EE097F84D30B84A1B01134497
:103EA00002331B881846FFF753FC034687F82D3072
:103EB00097F84D30B14A1B0113441B78062B14D1DF
:103EC00097F82D30002B10D197F84D30AB4A1B01DD
:103ED000134400221A7097F84D30A84A1B0113446E
:103EE00002334FF6FF721A8010E097F84D3001331D
:103EF00087F84D3097F84D30002B07D197F84D30AB
:103F00009E4A1B0113441B78002BC4D197F84D30F7
:103F1000002B40F0348297F84D30984A1B0113442F
:103F20000233FA8D1A803B6BDA783B6B9B78B2FBDD
:103F3000F3F387F82C303B6B9B78142B40F01F82F7
:103F4000102387F84E30002387F84F306AE097F847
:103F50004E303A6B13441B799AB297F84E30396B56
:103F60000B44043301331B789BB21B029BB21343F7
:103F70007B857B8D4FF64062934249D197F84D3057
:103F80007E4A1B01134402331B8819467C4809F002
:103F900021FE97F84E30103B3A6B13441B7999B2CF
:103FA00097F84E30103B3A6B1344043301331B78BF
:103FB0009BB21B029AB297F84D300A4391B26F4AF6
:103FC0001B01134404330A461A8097F84E300E3B07
:103FD0003A6B13441B7999B297F84E300E3B3A6B0B
:103FE0001344043301331B789BB21B029AB297F837
:103FF0004D300A4391B2614A1B01134406330A460D
:104000001A8097F84D305D4A1B01134408221A703C
:1040100097F84E30063387F84E3097F84F3001331B
:1040200087F84F3097F84F2097F82C309A428ED36C
:10403000A5E1FB6B02337B62002387F84B3004E081
:1040400097F84B30013387F84B3097F84B30002B03
:104050000BD197F84B30494A1B01134402331A889D
:104060007B6A1B889BB29A42EAD197F84B30002BAF
:1040700040F08781112387F84C307B6A9B78152BA1
:1040800040F07F817B6ADB78013BDAB27B6ADA70D1
:104090006FE097F84C307A6A13441B799AB297F81C
:1040A0004C30796A0B44043301331B789BB21B02FA
:1040B0009BB213437B8497F84C300E3B7A6A1344CF
:1040C0001B799AB297F84C300E3B796A0B44043353
:1040D00001331B789BB21B029BB213433B847B8C46
:1040E0004FF6416293421AD197F84B30234A1B0195
:1040F000134402331B881946224809F06BFD97F8D8
:104100004B301E4A1B01134409221A7097F84B309A
:104110001A4A1B01134408333A8C1A801EE07B8C28
:104120004FF64262934219D197F84B30134A1B0164
:10413000134402331B881946134809F04BFD97F8C6
:104140004B300E4A1B0113440A221A7097F84B3069
:104150000A4A1B0113440C333A8C1A807B6ADB78C1
:10416000153BDAB27B6ADA7097F84C30153387F872
:104170004C307B6ADB78002B8BD102E114070020E6
:104180005409010890090108C8090108FB6B0233B2
:10419000FB61002387F8483004E097F8483001338A
:1041A00087F8483097F84830002B0BD197F8483003
:1041B0007B4A1B01134402331A88FB691B889BB29C
:1041C0009A42EAD197F84830002B40F0DC80FB6936
:1041D000DB789B08FB76002387F84A30FB699B78E5
:1041E000012B40F0D080002387F8493056E097F843
:1041F0004A30FA6913441B799AB297F84A30F96940
:104200000B44043301331B789BB21B029BB2134354
:104210003B8397F84A300233FA6913441B799AB208
:1042200097F84A300233F9690B44043301331B78A1
:104230009BB21B029BB21343FB82FB8A42F6021223
:10424000934221D197F84830554A1B011344023359
:104250001B881946534809F0BDFC97F84830504A6E
:104260001B0113441B780A2B0ED197F848304C4A97
:104270001B0113440E333A8B1A8097F84830484A92
:104280001B0113440B221A7097F84A30043387F845
:104290004A3097F84930013387F8493097F8492078
:1042A000FB7E9A42A3D36EE0FB6B02337B63002359
:1042B00087F8473004E097F84730013387F84730F4
:1042C00097F84730002B0BD197F84730344A1B0141
:1042D000134402331A887B6B1B889BB29A42EAD143
:1042E00097F84730002B50D17B6B5B889AB297F8D8
:1042F00047302B491B010B440C331B889A4244D195
:104300007B6B1B79022B40D102233B727B6B1B79A9
:104310003B747B6B0533FB6007F10803184600F024
:1043200045F832E0FB6B0233BB631F4809F0C0FC69
:104330000A2009F061FC002387F8463004E097F872
:104340004630013387F8463097F84630002B0BD1C2
:1043500097F84630124A1B01134402331A88BB6B8C
:104360001B889BB29A42EAD197F84630002B0ED1B7
:104370000021042008F0E6FD09E000BF0AE000BFCC
:1043800008E000BF06E000BF04E000BF02E000BF9D
:1043900000E000BF97F8453018465037BD4680BD55
:1043A000140700200C0A0108540A010880B582B0E5
:1043B00000AF78607B681B78022B27D17B685B6835
:1043C0001A78154B5A70144B5B78012B1CD17B6803
:1043D0005B685A78104B9A700F4B9B78002B09D171
:1043E000002000F045FC0D4809F0F4FB0C4809F0F2
:1043F000F1FB0AE00B4809F0EDFB094809F0EAFB84
:10440000002000F01BFC00E000BF00E000BF00BF88
:104410000837BD4680BD00BF24070020840A01087C
:10442000C40A0108C80A010880B400AF034B1B7816
:104430001846BD465DF8047B704700BF1407002096
:1044400080B584B000AF03463A60FB800B467B71B9
:104450009223FB730023BB731BE0FB884FF6416282
:10446000934212D1BB7B124A1B01134402331888BA
:10447000BB7B0F4A1B011344083319883B68022297
:1044800006F02FFC0346FB7300E000BFBB7B01334B
:10449000BB73BB7B002B06D1BB7B054A1B011344BE
:1044A0001B78002BD9D1FB7B18461037BD4680BD49
:1044B0001407002080B500AF0C4809F08BFB0C48B6
:1044C00009F088FB0B4B1B79002B03D1094B012210
:1044D0001A7102E0074B00221A71074A00214FF6B9
:1044E0004160FFF7ADFF00BF80BD00BF080B0108B2
:1044F000C40A0108240700202707002080B582B0E5
:1045000000AF0123BB8000237B800023FB71A5E06B
:10451000FB795A4A1B0113441B78073B052B00F219
:10452000998001A252F823F041450008494500084E
:104530007B450008B1450008E74500082146000812
:104540004F4809F0B5FB86E04E4809F0B1FBFB7916
:104550004A4A1B01134402331888FB79474A1B015E
:10456000134404331988FB79444A1B01134406336E
:104570001B881A4606F014FA6DE0434809F098FBD0
:10458000FB793E4A1B01134402331888FB793B4AEE
:104590001B01134408331988FB79384A1B01134463
:1045A00008331B8802339BB21A4606F07AFA52E0AF
:1045B000364809F07DFBFB79304A1B011344023376
:1045C0001888FB792D4A1B0113440C331988FB7999
:1045D0002A4A1B0113440C331B8802339BB21A4630
:1045E00006F05FFA37E02A4809F062FBFB79234ABC
:1045F0001B01134402331888FB79204A1B01134422
:104600000E3319883B1D022206F0CCFAFB791B4AB7
:104610001B01134406221A70022000F029FB1AE045
:104620001C4809F045FBFB79144A1B011344023373
:104630001888FB79114A1B0113440E331988BB1CDF
:10464000022206F0AFFAFB790C4A1B011344062242
:104650001A7000E000BFFB790133FB71FB79002B7E
:1046600008D1FB79054A1B0113441B78002B7FF40A
:104670004FAF00BF00BF0837BD4680BD1407002004
:10468000480B0108600B0108880B0108C40B0108E6
:10469000080C01082C0C010880B400AF054BDB6846
:1046A000044A43F40043D36000BFBD465DF8047B79
:1046B000704700BF0004005880B483B000AF78603A
:1046C000064BD3F8D42005497B681343C1F8D43096
:1046D00000BF0C37BD465DF8047B704700080058EA
:1046E00080B483B000AF7860054B1A6A04497B68D8
:1046F00013430B6200BF0C37BD465DF8047B704767
:104700000008005880B485B000AF78604FF0B04327
:104710001A6D4FF0B0417B6813430B654FF0B04307
:104720001A6D7B681340FB60FB6800BF1437BD4601
:104730005DF8047B704780B485B000AF78604FF0BF
:10474000B043D3F850214FF0B0417B681343C1F818
:1047500050314FF0B043D3F850217B681340FB60D9
:10476000FB6800BF1437BD465DF8047B704780B41A
:1047700083B000AF78607B681B6843F480327B684D
:104780001A6000BF0C37BD465DF8047B704780B4EB
:1047900083B000AF78607B681B6843F001027B68E0
:1047A0001A6000BF0C37BD465DF8047B704780B4CB
:1047B00083B000AF786039607B685A683B681B043F
:1047C000DB431A407B685A6000BF0C37BD465DF87A
:1047D000047B704780B483B000AF786039607B6839
:1047E0005A683B681B041A437B685A6000BF0C3749
:1047F000BD465DF8047B704780B483B000AF78603D
:1048000039607B685A683B68DB431A407B685A60B2
:1048100000BF0C37BD465DF8047B704780B483B0A1
:1048200000AF786039607B683A689A6000BF0C37E7
:10483000BD465DF8047B704780B483B000AF7860FC
:1048400039603B681A047B689A6000BF0C37BD462C
:104850005DF8047B704780B483B000AF7860396046
:104860007B68DA683B6813403A689A4201D10123B9
:1048700000E0002318460C37BD465DF8047B704706
:1048800080B483B000AF786039607B68DA693B68D8
:1048900013403A689A4201D1012300E000231846F0
:1048A0000C37BD465DF8047B7047000080B500AF53
:1048B00002211848FFF7E4FF0346002B08D0154BF0
:1048C0005B6803F00203002B02D100F0D5F81EE074
:1048D00001211048FFF7D4FF0346002B08D00D4BF1
:1048E0005B6803F00103002B02D100F089F80EE0B1
:1048F00008210848FFF7C4FF0346002B08D0054BEA
:104900005B6803F00803002B02D100F001F900BF3F
:1049100000BF80BD000C005880B500AF02211848D0
:10492000FFF799FF0346002B08D1154B5B6803F492
:104930000033002B02D100F093F81EE0082110484C
:10494000FFF789FF0346002B08D10D4B5B6803F48A
:104950000023002B02D100F0BDF80EE02021084812
:10496000FFF779FF0346002B08D1054B5B6803F482
:104970000013002B02D100F04FF800BF00BF80BD34
:10498000000C005880B500AF4FF48010FFF7D3FE45
:104990004FF40070FFF7A4FE4FF40070FFF78CFE99
:1049A00040BF20BFFFF778FE00BF80BD80B500AFDD
:1049B0004FF48010FFF7A6FE0648FFF7E8FE054813
:1049C000FFF7D5FE2C2000F046FC2D2000F043FC24
:1049D00000BF80BD000C005880B500AF0121024827
:1049E000FFF70AFF00BF80BD000C005880B500AF84
:1049F00001210248FFF720FF00BF80BD000C0058D6
:104A000080B500AF07F086FF01210248FFF706FFDF
:104A100000BF80BD000C005880B500AF20210348C6
:104A2000FFF7D8FE07F0A6FF00BF80BD000C0058BE
:104A300080B500AF02210248FFF7DEFE00BF80BD57
:104A4000000C005880B500AF02210448FFF7F4FEC7
:104A500002210248FFF7ABFE00BF80BD000C0058EA
:104A600080B500AF02210348FFF7B4FE07F0D2FF84
:104A700000BF80BD000C005880B500AF07F0E0FF1C
:104A800002210248FFF7CAFE00BF80BD000C00589B
:104A900080B582B000AF786008210C48FFF7DBFEDC
:104AA0000346002B07D00A4A7B6813600821074899
:104AB000FFF77DFE06E07B68984708210348FFF773
:104AC000BBFE00BF0837BD4680BD00BF000C0058CC
:104AD0002C07002080B500AF08210648FFF77AFEBA
:104AE000054B1B68984708210248FFF7A5FE00BF49
:104AF00080BD00BF000C00582C07002080B500AF1F
:104B000008210248FFF778FE00BF80BD000C005866
:104B100080B500AF08F03CF808210248FFF77EFEA0
:104B200000BF80BD000C0058D458C4500433C418D2
:104B30008C42F9D37047036004308842FBD370473E
:104B40000C48854600F01EF90B480C490C4A00231E
:104B5000FFF7EDFF0B480C490023FFF7EEFF0B4872
:104B60000B490023FFF7E9FF09F0DAF9FDF7E8FE4A
:104B7000FEE700000000032008000020FC010020E8
:104B8000441201084C020020BC190020E40103205B
:104B9000670A0320FEE780B485B000AF78604FF06D
:104BA000B043DA6C4FF0B0417B681343CB644FF0F5
:104BB000B043DA6C7B681340FB60FB6800BF1437BE
:104BC000BD465DF8047B704780B588B000AF0346F2
:104BD000FB7107F10C0300221A605A609A60DA60D8
:104BE0001A610220FFF7D7FFFB79124A32F813301F
:104BF000FB6001233B6100237B610223BB61FB79E6
:104C00000D4A52F8233007F10C021146184600F005
:104C1000FBFEFB79084A52F82300FB79054A32F87B
:104C200013300022194601F05FF800BF2037BD465F
:104C300080BD00BFD80D01080800002080B582B0FB
:104C400000AF0346FB71FB79074A52F82300FB795A
:104C5000064A32F813300122194601F045F800BF28
:104C60000837BD4680BD00BF08000020D80D0108F0
:104C700080B582B000AF0346FB71FB79074A52F85A
:104C80002300FB79064A32F813300022194601F05E
:104C90002BF800BF0837BD4680BD00BF08000020CC
:104CA000D80D010880B588B000AF03460A46FB71F5
:104CB0001346BB7107F10C0300221A605A609A6018
:104CC000DA601A61FB79002B03D10420FFF763FF40
:104CD0000CE0FB79012B03D10820FFF75CFF05E016
:104CE000FB79022B02D10820FFF755FFBB79002B7F
:104CF00017D1FB79204A32F81330FB6000233B6167
:104D000001237B610223BB61FB791C4A52F82330EB
:104D100007F10C021146184600F076FE0120FCF760
:104D200087FDBB79012B23D1FB79134A32F813306D
:104D3000FB6001237B614FF404133B61FB790F4A55
:104D400052F8233007F10C021146184600F05CFEC1
:104D5000FB790B4AD35C5BB200220F21184600F0AE
:104D600060FAFB79064AD35C5BB2184600F073FA2E
:104D700000BF2037BD4680BDE00D010814000020B3
:104D8000E80D010880B400AF264B00229A60254B45
:104D9000D3F88830234A43F47003C2F888304FF0C8
:104DA000B0431B684FF0B04243F0010313604FF073
:104DB000B0434FF4E0229A604FF0B0431A684FF0CE
:104DC000B041194B13400B604FF0B043D3F894300F
:104DD0004FF0B04223F00503C2F894304FF0B043D7
:104DE000D3F898304FF0B04223F00103C2F8983066
:104DF0004FF0B0430D4ADA604FF0B0430B4A1A61EE
:104E00004FF0B0431B684FF0B04223F4802313608F
:104E10004FF0B04300229A6100BFBD465DF8047BAD
:104E2000704700BF00ED00E0FBFEF6FA0010042220
:104E300080B400AF054B5B68044A43F00103536044
:104E400000BFBD465DF8047B704700BF002004E052
:104E500080B400AF054B5B68044A43F00203536023
:104E600000BFBD465DF8047B704700BF002004E032
:104E700080B582B000AF0023FB710C4B1B680B4A5E
:104E800043F480731360032000F0C0F9002000F0A9
:104E90000FF80346002B02D00123FB7101E0FDF760
:104EA00042FFFB7918460837BD4680BD00400058D8
:104EB00080B584B000AF78600023FB73174B1B787C
:104EC000002B24D002F09EF80246144B1B781946A2
:104ED0004FF47A73B3FBF1F3B2FBF3F3184600F02F
:104EE000D6F90346002B0FD17B680F2B09D800227F
:104EF00079684FF0FF3000F094F9094A7B6813603D
:104F000007E00123FB7304E00123FB7301E00123AD
:104F1000FB73FB7B18461037BD4680BD2800002080
:104F20002400002080B400AF064B1B781A46064BC5
:104F30001B681344044A136000BFBD465DF8047B40
:104F4000704700BF280000203007002080B400AF69
:104F5000034B1B681846BD465DF8047B704700BFD5
:104F60003007002080B400AF034B1B681846BD46D5
:104F70005DF8047B704700BF2400002080B400AFC0
:104F8000034B1B781846BD465DF8047B704700BF95
:104F90002800002080B500AFFFF74AFF00BF80BDAA
:104FA00080B500AFFFF754FF00BF80BD80B485B06F
:104FB00000AF78607B6803F00703FB600C4BDB6895
:104FC000BB60BA684FF6FF031340BB60FB681A0270
:104FD000BB68134343F0BF6343F40033BB60044A30
:104FE000BB68D36000BF1437BD465DF8047B7047D3
:104FF00000ED00E080B400AF044BDB681B0A03F057
:1050000007031846BD465DF8047B704700ED00E0DD
:1050100080B483B000AF0346FB7197F90730002BD3
:105020000BDBFB7903F01F02074997F907305B0997
:10503000012000FA02F241F8232000BF0C37BD46E0
:105040005DF8047B704700BF00E100E080B483B0EE
:1050500000AF0346FB7197F90730002B12DBFB7999
:1050600003F01F020A4997F907305B09012000FA93
:1050700002F2203341F82320BFF34F8F00BFBFF36C
:105080006F8F00BF00BF0C37BD465DF8047B7047D3
:1050900000E100E080B483B000AF0346FB7197F9F4
:1050A0000730002B0CDBFB7903F01F02074997F94F
:1050B00007305B09012000FA02F2403341F8232057
:1050C00000BF0C37BD465DF8047B704700E100E08F
:1050D00080B483B000AF0346FB7197F90730002B13
:1050E0000CDBFB7903F01F02074997F907305B09D6
:1050F000012000FA02F2603341F8232000BF0C3790
:10510000BD465DF8047B704700E100E080B483B0E9
:1051100000AF03463960FB7197F90730002B0ADBBB
:105120003B68DAB20C4997F907301201D2B20B444E
:1051300083F800230AE03B68DAB20849FB7903F000
:105140000F03043B1201D2B20B441A7600BF0C3796
:10515000BD465DF8047B704700E100E000ED00E033
:1051600080B489B000AFF860B9607A60FB6803F082
:105170000703FB61FB69C3F10703042B28BF04236A
:10518000BB61FB690433062B02D9FB69033B00E0DA
:1051900000237B614FF0FF32BB6902FA03F3DA436D
:1051A000BB681A407B699A404FF0FF317B6901FA76
:1051B00003F3D9437B680B40134318462437BD469D
:1051C0005DF8047B7047000080B582B000AF786066
:1051D0007B68013BB3F1807F01D301230FE00A4AD2
:1051E0007B68013B53600F214FF0FF30FFF78EFFCC
:1051F000054B00229A60044B07221A6000231846D0
:105200000837BD4680BD00BF10E000E080B582B029
:1052100000AF78607868FFF7C9FE00BF0837BD4669
:1052200080BD80B586B000AF0346B9607A60FB737D
:10523000FFF7E0FE78617A68B9687869FFF790FF58
:10524000024697F90F3011461846FFF75FFF00BF7F
:105250001837BD4680BD80B582B000AF0346FB71F4
:1052600097F907301846FFF7D3FE00BF0837BD4651
:1052700080BD80B582B000AF0346FB7197F907305F
:105280001846FFF7E3FE00BF0837BD4680BD80B576
:1052900082B000AF78607868FFF796FF0346184643
:1052A0000837BD4680BD80B582B000AF0346FB71B4
:1052B00097F907301846FFF7EDFE00BF0837BD46E7
:1052C00080BD80B582B000AF0346FB7197F907300F
:1052D0001846FFF7FDFE00BF0837BD4680BD000041
:1052E00080B584B000AF78607B68002B01D10123CA
:1052F0008EE07B681B681A46474B9A420FD87B6842
:105300001B681A46454B1344454AA2FB03231B095D
:105310009A007B685A647B68424A1A640EE07B6894
:105320001B681A46404B13443D4AA2FB03231B094A
:105330009A007B685A647B683C4A1A647B68022244
:1053400083F825207B681B681B68FB60FB6823F4DF
:10535000FF4323F07003FB607B689A687B68DB681F
:105360001A437B681B691A437B685B691A437B6835
:105370009B691A437B68DB691A437B681B6A13438A
:10538000FA681343FB607B681B68FA681A607868E8
:1053900000F074FA7B689B68B3F5804F02D17B689C
:1053A00000225A607B685A687B689B6C02F03F025F
:1053B0001A607B68DB6C7A68126D5A607B685B6888
:1053C000002B10D07B685B68042B0CD8786800F049
:1053D00093FA7B685B6D00221A607B689B6D7A682C
:1053E000D26D5A6008E07B6800225A657B68002213
:1053F0009A657B680022DA657B680022DA637B6845
:10540000012283F825207B68002283F824200023D2
:1054100018461037BD4680BD07040240F8FFFDBFA7
:10542000CDCCCCCC00000240F8FBFDBF0004024014
:1054300080B586B000AFF860B9607A603B60002349
:10544000FB75FB6893F82430012B01D1022366E041
:10545000FB68012283F82420FB6893F82530DBB237
:10546000012B55D1FB68022283F82520FB6800221E
:10547000DA63FB681B681A68FB681B6822F001028C
:105480001A603B687A68B968F86800F0B9F9FB6897
:105490001B6B002B08D0FB681B681A68FB681B6835
:1054A00042F00E021A600FE0FB681B681A68FB6886
:1054B0001B6822F004021A60FB681B681A68FB680C
:1054C0001B6842F00A021A60FB689B6C1B6803F4BD
:1054D0008033002B07D0FB689B6C1A68FB689B6CC1
:1054E00042F480721A60FB685B6D002B07D0FB688A
:1054F0005B6D1A68FB685B6D42F480721A60FB6832
:105500001B681A68FB681B6842F001021A6005E01C
:10551000FB68002283F824200223FB75FB7D1846DC
:105520001837BD4680BD80B483B000AF78607B681B
:10553000002B01D101234FE07B6893F82530DBB2CB
:10554000022B08D07B680422DA637B68002283F890
:105550002420012340E07B681B681A687B681B6875
:1055600022F00E021A607B689B6C1A687B689B6C49
:1055700022F480721A607B681B681A687B681B685B
:1055800022F001021A607B685B6C03F01C027B68EE
:105590001B6C012101FA02F25A607B68DB6C7A68AD
:1055A000126D5A607B685B6D002B0CD07B685B6D65
:1055B0001A687B685B6D22F480721A607B689B6D51
:1055C0007A68D26D5A607B68012283F825207B6857
:1055D000002283F82420002318460C37BD465DF8CE
:1055E000047B704780B584B000AF78600023FB7304
:1055F0007B6893F82530DBB2022B05D07B68042250
:10560000DA630123FB7347E07B681B681A687B68D9
:105610001B6822F00E021A607B681B681A687B68A0
:105620001B6822F001021A607B689B6C1A687B6819
:105630009B6C22F480721A607B685B6C03F01C0226
:105640007B681B6C012101FA02F25A607B68DB6CFB
:105650007A68126D5A607B685B6D002B0CD07B689A
:105660005B6D1A687B685B6D22F480721A607B68E0
:105670009B6D7A68D26D5A607B68012283F8252081
:105680007B68002283F824207B689B6B002B03D06F
:105690007B689B6B78689847FB7B18461037BD4644
:1056A00080BD80B584B000AF78607B681B6C1B68E0
:1056B000FB607B681B681B68BB607B685B6C03F0EE
:1056C0001C0304229A40FB681340002B26D0BB68C1
:1056D00003F00403002B21D07B681B681B6803F0D8
:1056E0002003002B07D17B681B681A687B681B6846
:1056F00022F004021A607B685B6C03F01C027B687A
:105700001B6C042101FA02F25A607B681B6B002BB0
:1057100071D07B681B6B786898476CE07B685B6C2A
:1057200003F01C0302229A40FB681340002B2ED08A
:10573000BB6803F00203002B29D07B681B681B6841
:1057400003F02003002B0BD17B681B681A687B6871
:105750001B6822F00A021A607B68012283F8252068
:105760007B685B6C03F01C027B681B6C022101FAF6
:1057700002F25A607B68002283F824207B68DB6A8F
:10578000002B38D07B68DB6A7868984733E07B6809
:105790005B6C03F01C0308229A40FB681340002B4B
:1057A0002AD0BB6803F00803002B25D07B681B6858
:1057B0001A687B681B6822F00E021A607B685B6CBB
:1057C00003F01C027B681B6C012101FA02F25A6093
:1057D0007B680122DA637B68012283F825207B68DD
:1057E000002283F824207B685B6B002B04D07B684D
:1057F0005B6B7868984700BF00BF1037BD4680BD1F
:1058000080B485B000AFF860B9607A603B60FB6837
:10581000DB6CFA68126D5A60FB685B6D002B04D07C
:10582000FB689B6DFA68D26D5A60FB685B6C03F095
:105830001C02FB681B6C012101FA02F25A60FB6832
:105840001B683A685A60FB689B68102B08D1FB689C
:105850001B687A689A60FB681B68BA68DA6007E0C0
:10586000FB681B68BA689A60FB681B687A68DA6034
:1058700000BF1437BD465DF8047B704780B485B027
:1058800000AF78607B681B681A46174B9A420AD8AB
:105890007B685B6C9B089B0003F1804303F502333C
:1058A0007A68936407E07B685B6C9B089A000F4BF7
:1058B00013447A6893647B681B68DBB2083B0C4A2C
:1058C000A2FB03231B09FB607B680A4ADA64FB68BE
:1058D00003F01F0301229A407B681A6500BF14374A
:1058E000BD465DF8047B7047070402401C08024077
:1058F000CDCCCCCC8008024080B485B000AF7860BD
:105900007B685B6803F03F03FB60FA680B4B134452
:105910009B001A467B685A657B68094A9A65FB6852
:10592000013B03F0030301229A407B68DA6500BF64
:105930001437BD465DF8047B704700BF3F820010FE
:105940004009024080B483B000AF786039607B6862
:1059500093F82530DBB2012B2BD17B6893F82430F0
:10596000012B01D1022325E07B68012283F824204A
:105970007B689B6C1A68124B13403A6811683A684E
:10598000D268013AD20411433A68526811433A6826
:10599000127A120411433A68527A520211437A6819
:1059A000926C0B4313607B68002283F82420002351
:1059B00000E0012318460C37BD465DF8047B7047B4
:1059C000FFFD00E080B487B000AF78607B681B68A3
:1059D0001B0C03F001037B617B681B6803F01F0352
:1059E000012202FA03F33B617B695B0103F1B043DF
:1059F00003F60803FB60FB683A691A6000BF1C37B6
:105A0000BD465DF8047B704780B487B000AF786016
:105A1000396000237B614CE13B681A6801217B6996
:105A200001FA03F31340FB60FB68002B00F03E819A
:105A30003B685B6803F00303012B05D03B685B68A0
:105A400003F00303022B30D17B689B683B617B69C9
:105A50005B00032202FA03F3DB433A6913403B6124
:105A60003B68DA687B695B0002FA03F33A69134327
:105A70003B617B683A699A607B685B683B610122A5
:105A80007B6902FA03F3DB433A6913403B613B68ED
:105A90005B681B0903F001027B6902FA03F33A69B0
:105AA00013433B617B683A695A603B685B6803F06B
:105AB0000303032B17D07B68DB683B617B695B00CA
:105AC000032202FA03F3DB433A6913403B613B686C
:105AD0009A687B695B0002FA03F33A6913433B61FE
